{
  "_format": "hh-sol-artifact-1",
  "contractName": "ERC721",
  "sourceName": "contracts/ERC721.sol",
  "abi": [
    {
      "inputs": [
        {
          "internalType": "string",
          "name": "_name",
          "type": "string"
        },
        {
          "internalType": "string",
          "name": "_symbol",
          "type": "string"
        }
      ],
      "stateMutability": "nonpayable",
      "type": "constructor"
    },
    {
      "anonymous": false,
      "inputs": [
        {
          "indexed": true,
          "internalType": "address",
          "name": "_owner",
          "type": "address"
        },
        {
          "indexed": true,
          "internalType": "address",
          "name": "_approved",
          "type": "address"
        },
        {
          "indexed": true,
          "internalType": "uint256",
          "name": "_tokenId",
          "type": "uint256"
        }
      ],
      "name": "Approval",
      "type": "event"
    },
    {
      "anonymous": false,
      "inputs": [
        {
          "indexed": true,
          "internalType": "address",
          "name": "_owner",
          "type": "address"
        },
        {
          "indexed": true,
          "internalType": "address",
          "name": "_operator",
          "type": "address"
        },
        {
          "indexed": false,
          "internalType": "bool",
          "name": "_approved",
          "type": "bool"
        }
      ],
      "name": "ApprovalForAll",
      "type": "event"
    },
    {
      "anonymous": false,
      "inputs": [
        {
          "indexed": true,
          "internalType": "address",
          "name": "_from",
          "type": "address"
        },
        {
          "indexed": true,
          "internalType": "address",
          "name": "_to",
          "type": "address"
        },
        {
          "indexed": true,
          "internalType": "uint256",
          "name": "_tokenId",
          "type": "uint256"
        }
      ],
      "name": "Transfer",
      "type": "event"
    },
    {
      "inputs": [
        {
          "internalType": "address",
          "name": "_approved",
          "type": "address"
        },
        {
          "internalType": "uint256",
          "name": "_tokenId",
          "type": "uint256"
        }
      ],
      "name": "approve",
      "outputs": [],
      "stateMutability": "payable",
      "type": "function"
    },
    {
      "inputs": [
        {
          "internalType": "address",
          "name": "_owner",
          "type": "address"
        }
      ],
      "name": "balanceOf",
      "outputs": [
        {
          "internalType": "uint256",
          "name": "",
          "type": "uint256"
        }
      ],
      "stateMutability": "view",
      "type": "function"
    },
    {
      "inputs": [],
      "name": "contractOwner",
      "outputs": [
        {
          "internalType": "address",
          "name": "",
          "type": "address"
        }
      ],
      "stateMutability": "view",
      "type": "function"
    },
    {
      "inputs": [
        {
          "internalType": "uint256",
          "name": "_tokenId",
          "type": "uint256"
        }
      ],
      "name": "getApproved",
      "outputs": [
        {
          "internalType": "address",
          "name": "",
          "type": "address"
        }
      ],
      "stateMutability": "view",
      "type": "function"
    },
    {
      "inputs": [
        {
          "internalType": "address",
          "name": "_owner",
          "type": "address"
        },
        {
          "internalType": "address",
          "name": "_operator",
          "type": "address"
        }
      ],
      "name": "isApprovedForAll",
      "outputs": [
        {
          "internalType": "bool",
          "name": "",
          "type": "bool"
        }
      ],
      "stateMutability": "view",
      "type": "function"
    },
    {
      "inputs": [
        {
          "internalType": "address",
          "name": "_to",
          "type": "address"
        },
        {
          "internalType": "string",
          "name": "_uri",
          "type": "string"
        }
      ],
      "name": "mintTo",
      "outputs": [],
      "stateMutability": "nonpayable",
      "type": "function"
    },
    {
      "inputs": [],
      "name": "name",
      "outputs": [
        {
          "internalType": "string",
          "name": "",
          "type": "string"
        }
      ],
      "stateMutability": "view",
      "type": "function"
    },
    {
      "inputs": [],
      "name": "nextTokenIdMint",
      "outputs": [
        {
          "internalType": "uint256",
          "name": "",
          "type": "uint256"
        }
      ],
      "stateMutability": "view",
      "type": "function"
    },
    {
      "inputs": [
        {
          "internalType": "uint256",
          "name": "_tokenId",
          "type": "uint256"
        }
      ],
      "name": "ownerOf",
      "outputs": [
        {
          "internalType": "address",
          "name": "",
          "type": "address"
        }
      ],
      "stateMutability": "view",
      "type": "function"
    },
    {
      "inputs": [
        {
          "internalType": "address",
          "name": "_from",
          "type": "address"
        },
        {
          "internalType": "address",
          "name": "_to",
          "type": "address"
        },
        {
          "internalType": "uint256",
          "name": "_tokenId",
          "type": "uint256"
        }
      ],
      "name": "safeTransferFrom",
      "outputs": [],
      "stateMutability": "payable",
      "type": "function"
    },
    {
      "inputs": [
        {
          "internalType": "address",
          "name": "_from",
          "type": "address"
        },
        {
          "internalType": "address",
          "name": "_to",
          "type": "address"
        },
        {
          "internalType": "uint256",
          "name": "_tokenId",
          "type": "uint256"
        },
        {
          "internalType": "bytes",
          "name": "data",
          "type": "bytes"
        }
      ],
      "name": "safeTransferFrom",
      "outputs": [],
      "stateMutability": "payable",
      "type": "function"
    },
    {
      "inputs": [
        {
          "internalType": "address",
          "name": "_operator",
          "type": "address"
        },
        {
          "internalType": "bool",
          "name": "_approved",
          "type": "bool"
        }
      ],
      "name": "setApprovalForAll",
      "outputs": [],
      "stateMutability": "nonpayable",
      "type": "function"
    },
    {
      "inputs": [],
      "name": "symbol",
      "outputs": [
        {
          "internalType": "string",
          "name": "",
          "type": "string"
        }
      ],
      "stateMutability": "view",
      "type": "function"
    },
    {
      "inputs": [
        {
          "internalType": "uint256",
          "name": "_tokenId",
          "type": "uint256"
        }
      ],
      "name": "tokenURI",
      "outputs": [
        {
          "internalType": "string",
          "name": "",
          "type": "string"
        }
      ],
      "stateMutability": "view",
      "type": "function"
    },
    {
      "inputs": [],
      "name": "totalSupply",
      "outputs": [
        {
          "internalType": "uint256",
          "name": "",
          "type": "uint256"
        }
      ],
      "stateMutability": "view",
      "type": "function"
    },
    {
      "inputs": [
        {
          "internalType": "address",
          "name": "_from",
          "type": "address"
        },
        {
          "internalType": "address",
          "name": "_to",
          "type": "address"
        },
        {
          "internalType": "uint256",
          "name": "_tokenId",
          "type": "uint256"
        }
      ],
      "name": "transferFrom",
      "outputs": [],
      "stateMutability": "payable",
      "type": "function"
    }
  ],
  "bytecode": "0x60806040523480156200001157600080fd5b50604051620026053803806200260583398181016040528101906200003791906200023f565b81600090816200004891906200050f565b5080600190816200005a91906200050f565b50600060028190555033600360006101000a81548173ffffffffffffffffffffffffffffffffffffffff021916908373ffffffffffffffffffffffffffffffffffffffff1602179055505050620005f6565b6000604051905090565b600080fd5b600080fd5b600080fd5b600080fd5b6000601f19601f8301169050919050565b7f4e487b7100000000000000000000000000000000000000000000000000000000600052604160045260246000fd5b6200011582620000ca565b810181811067ffffffffffffffff82111715620001375762000136620000db565b5b80604052505050565b60006200014c620000ac565b90506200015a82826200010a565b919050565b600067ffffffffffffffff8211156200017d576200017c620000db565b5b6200018882620000ca565b9050602081019050919050565b60005b83811015620001b557808201518184015260208101905062000198565b60008484015250505050565b6000620001d8620001d2846200015f565b62000140565b905082815260208101848484011115620001f757620001f6620000c5565b5b6200020484828562000195565b509392505050565b600082601f830112620002245762000223620000c0565b5b815162000236848260208601620001c1565b91505092915050565b60008060408385031215620002595762000258620000b6565b5b600083015167ffffffffffffffff8111156200027a5762000279620000bb565b5b62000288858286016200020c565b925050602083015167ffffffffffffffff811115620002ac57620002ab620000bb565b5b620002ba858286016200020c565b9150509250929050565b600081519050919050565b7f4e487b7100000000000000000000000000000000000000000000000000000000600052602260045260246000fd5b600060028204905060018216806200031757607f821691505b6020821081036200032d576200032c620002cf565b5b50919050565b60008190508160005260206000209050919050565b60006020601f8301049050919050565b600082821b905092915050565b600060088302620003977fffffffffffffffffffffffffffffffffffffffffffffffffffffffffffffffff8262000358565b620003a3868362000358565b95508019841693508086168417925050509392505050565b6000819050919050565b6000819050919050565b6000620003f0620003ea620003e484620003bb565b620003c5565b620003bb565b9050919050565b6000819050919050565b6200040c83620003cf565b620004246200041b82620003f7565b84845462000365565b825550505050565b600090565b6200043b6200042c565b6200044881848462000401565b505050565b5b8181101562000470576200046460008262000431565b6001810190506200044e565b5050565b601f821115620004bf57620004898162000333565b620004948462000348565b81016020851015620004a4578190505b620004bc620004b38562000348565b8301826200044d565b50505b505050565b600082821c905092915050565b6000620004e460001984600802620004c4565b1980831691505092915050565b6000620004ff8383620004d1565b9150826002028217905092915050565b6200051a82620002c4565b67ffffffffffffffff811115620005365762000535620000db565b5b620005428254620002fe565b6200054f82828562000474565b600060209050601f83116001811462000587576000841562000572578287015190505b6200057e8582620004f1565b865550620005ee565b601f198416620005978662000333565b60005b82811015620005c1578489015182556001820191506020850194506020810190506200059a565b86831015620005e15784890151620005dd601f891682620004d1565b8355505b6001600288020188555050505b505050505050565b611fff80620006066000396000f3fe6080604052600436106100f25760003560e01c80636352211e1161008a578063b88d4fde11610059578063b88d4fde14610300578063c87b56dd1461031c578063ce606ee014610359578063e985e9c514610384576100f2565b80636352211e1461023257806370a082311461026f57806395d89b41146102ac578063a22cb465146102d7576100f2565b80630a149de9116100c65780630a149de9146101a457806318160ddd146101cf57806323b872dd146101fa57806342842e0e14610216576100f2565b806275a317146100f757806306fdde0314610120578063081812fc1461014b578063095ea7b314610188575b600080fd5b34801561010357600080fd5b5061011e60048036038101906101199190611398565b6103c1565b005b34801561012c57600080fd5b50610135610598565b6040516101429190611473565b60405180910390f35b34801561015757600080fd5b50610172600480360381019061016d91906114cb565b610626565b60405161017f9190611507565b60405180910390f35b6101a2600480360381019061019d9190611522565b610663565b005b3480156101b057600080fd5b506101b961078a565b6040516101c69190611571565b60405180910390f35b3480156101db57600080fd5b506101e4610790565b6040516101f19190611571565b60405180910390f35b610214600480360381019061020f919061158c565b61079a565b005b610230600480360381019061022b919061158c565b610a40565b005b34801561023e57600080fd5b50610259600480360381019061025491906114cb565b610a60565b6040516102669190611507565b60405180910390f35b34801561027b57600080fd5b50610296600480360381019061029191906115df565b610a9d565b6040516102a39190611571565b60405180910390f35b3480156102b857600080fd5b506102c1610b57565b6040516102ce9190611473565b60405180910390f35b3480156102e357600080fd5b506102fe60048036038101906102f99190611644565b610be5565b005b61031a60048036038101906103159190611725565b610ce2565b005b34801561032857600080fd5b50610343600480360381019061033e91906114cb565b610f06565b6040516103509190611473565b60405180910390f35b34801561036557600080fd5b5061036e610fab565b60405161037b9190611507565b60405180910390f35b34801561039057600080fd5b506103ab60048036038101906103a691906117a8565b610fd1565b6040516103b891906117f7565b60405180910390f35b3373ffffffffffffffffffffffffffffffffffffffff16600360009054906101000a900473ffffffffffffffffffffffffffffffffffffffff1673ffffffffffffffffffffffffffffffffffffffff1614610451576040517f08c379a00000000000000000000000000000000000000000000000000000000081526004016104489061185e565b60405180910390fd5b8160046000600254815260200190815260200160002060006101000a81548173ffffffffffffffffffffffffffffffffffffffff021916908373ffffffffffffffffffffffffffffffffffffffff1602179055506001600560008473ffffffffffffffffffffffffffffffffffffffff1673ffffffffffffffffffffffffffffffffffffffff16815260200190815260200160002060008282546104f591906118ad565b9250508190555080600860006002548152602001908152602001600020908161051e9190611aed565b506002548273ffffffffffffffffffffffffffffffffffffffff163373ffffffffffffffffffffffffffffffffffffffff167fddf252ad1be2c89b69c2b068fc378daa952ba7f163c4a11628f55a4df523b3ef60405160405180910390a46002600081548092919061058f90611bbf565b91905055505050565b600080546105a590611910565b80601f01602080910402602001604051908101604052809291908181526020018280546105d190611910565b801561061e5780601f106105f35761010080835404028352916020019161061e565b820191906000526020600020905b81548152906001019060200180831161060157829003601f168201915b505050505081565b60006006600083815260200190815260200160002060009054906101000a900473ffffffffffffffffffffffffffffffffffffffff169050919050565b3373ffffffffffffffffffffffffffffffffffffffff1661068382610a60565b73ffffffffffffffffffffffffffffffffffffffff16146106d9576040517f08c379a00000000000000000000000000000000000000000000000000000000081526004016106d09061185e565b60405180910390fd5b816006600083815260200190815260200160002060006101000a81548173ffffffffffffffffffffffffffffffffffffffff021916908373ffffffffffffffffffffffffffffffffffffffff160217905550808273ffffffffffffffffffffffffffffffffffffffff163373ffffffffffffffffffffffffffffffffffffffff167f8c5be1e5ebec7d5bd14f71427d1e84f3dd0314c0f7b2291e5b200ac8c7c3b92560405160405180910390a45050565b60025481565b6000600254905090565b8273ffffffffffffffffffffffffffffffffffffffff166004600083815260200190815260200160002060009054906101000a900473ffffffffffffffffffffffffffffffffffffffff1673ffffffffffffffffffffffffffffffffffffffff161461083b576040517f08c379a00000000000000000000000000000000000000000000000000000000081526004016108329061185e565b60405180910390fd5b600073ffffffffffffffffffffffffffffffffffffffff168273ffffffffffffffffffffffffffffffffffffffff16036108aa576040517f08c379a00000000000000000000000000000000000000000000000000000000081526004016108a190611c53565b60405180910390fd5b6006600082815260200190815260200160002060006101000a81549073ffffffffffffffffffffffffffffffffffffffff02191690556001600560008573ffffffffffffffffffffffffffffffffffffffff1673ffffffffffffffffffffffffffffffffffffffff16815260200190815260200160002060008282546109309190611c73565b925050819055506001600560008473ffffffffffffffffffffffffffffffffffffffff1673ffffffffffffffffffffffffffffffffffffffff168152602001908152602001600020600082825461098791906118ad565b92505081905550816004600083815260200190815260200160002060006101000a81548173ffffffffffffffffffffffffffffffffffffffff021916908373ffffffffffffffffffffffffffffffffffffffff160217905550808273ffffffffffffffffffffffffffffffffffffffff168473ffffffffffffffffffffffffffffffffffffffff167fddf252ad1be2c89b69c2b068fc378daa952ba7f163c4a11628f55a4df523b3ef60405160405180910390a4505050565b610a5b83838360405180602001604052806000815250610ce2565b505050565b60006004600083815260200190815260200160002060009054906101000a900473ffffffffffffffffffffffffffffffffffffffff169050919050565b600081600073ffffffffffffffffffffffffffffffffffffffff168173ffffffffffffffffffffffffffffffffffffffff1603610b0f576040517f08c379a0000000000000000000000000000000000000000000000000000000008152600401610b0690611d19565b60405180910390fd5b600560008473ffffffffffffffffffffffffffffffffffffffff1673ffffffffffffffffffffffffffffffffffffffff16815260200190815260200160002054915050919050565b60018054610b6490611910565b80601f0160208091040260200160405190810160405280929190818152602001828054610b9090611910565b8015610bdd5780601f10610bb257610100808354040283529160200191610bdd565b820191906000526020600020905b815481529060010190602001808311610bc057829003601f168201915b505050505081565b80600760003373ffffffffffffffffffffffffffffffffffffffff1673ffffffffffffffffffffffffffffffffffffffff16815260200190815260200160002060008473ffffffffffffffffffffffffffffffffffffffff1673ffffffffffffffffffffffffffffffffffffffff16815260200190815260200160002060006101000a81548160ff0219169083151502179055508173ffffffffffffffffffffffffffffffffffffffff163373ffffffffffffffffffffffffffffffffffffffff167f17307eab39ab6107e8899845ad3d59bd9653f200f220920489ca2b5937696c3183604051610cd691906117f7565b60405180910390a35050565b3373ffffffffffffffffffffffffffffffffffffffff16610d0283610a60565b73ffffffffffffffffffffffffffffffffffffffff161480610d8257503373ffffffffffffffffffffffffffffffffffffffff166006600084815260200190815260200160002060009054906101000a900473ffffffffffffffffffffffffffffffffffffffff1673ffffffffffffffffffffffffffffffffffffffff16145b80610e1b575060076000610d9584610a60565b73ffffffffffffffffffffffffffffffffffffffff1673ffffffffffffffffffffffffffffffffffffffff16815260200190815260200160002060003373ffffffffffffffffffffffffffffffffffffffff1673ffffffffffffffffffffffffffffffffffffffff16815260200190815260200160002060009054906101000a900460ff165b610e5a576040517f08c379a0000000000000000000000000000000000000000000000000000000008152600401610e5190611d85565b60405180910390fd5b818373ffffffffffffffffffffffffffffffffffffffff168573ffffffffffffffffffffffffffffffffffffffff167fddf252ad1be2c89b69c2b068fc378daa952ba7f163c4a11628f55a4df523b3ef60405160405180910390a4610ec184848484611065565b610f00576040517f08c379a0000000000000000000000000000000000000000000000000000000008152600401610ef790611df1565b60405180910390fd5b50505050565b6060600860008381526020019081526020016000208054610f2690611910565b80601f0160208091040260200160405190810160405280929190818152602001828054610f5290611910565b8015610f9f5780601f10610f7457610100808354040283529160200191610f9f565b820191906000526020600020905b815481529060010190602001808311610f8257829003601f168201915b50505050509050919050565b600360009054906101000a900473ffffffffffffffffffffffffffffffffffffffff1681565b6000600760008473ffffffffffffffffffffffffffffffffffffffff1673ffffffffffffffffffffffffffffffffffffffff16815260200190815260200160002060008373ffffffffffffffffffffffffffffffffffffffff1673ffffffffffffffffffffffffffffffffffffffff16815260200190815260200160002060009054906101000a900460ff16905092915050565b6000808473ffffffffffffffffffffffffffffffffffffffff163b11156111d3578373ffffffffffffffffffffffffffffffffffffffff1663150b7a02338786866040518563ffffffff1660e01b81526004016110c59493929190611e66565b6020604051808303816000875af192505050801561110157506040513d601f19601f820116820180604052508101906110fe9190611f0a565b60015b611183573d8060008114611131576040519150601f19603f3d011682016040523d82523d6000602084013e611136565b606091505b50600081510361117b576040517f08c379a000000000000000000000000000000000000000000000000000000000815260040161117290611fa9565b60405180910390fd5b805181602001fd5b63150b7a0260e01b7bffffffffffffffffffffffffffffffffffffffffffffffffffffffff1916817bffffffffffffffffffffffffffffffffffffffffffffffffffffffff1916149150506111d8565b600190505b949350505050565b6000604051905090565b600080fd5b600080fd5b600073ffffffffffffffffffffffffffffffffffffffff82169050919050565b600061121f826111f4565b9050919050565b61122f81611214565b811461123a57600080fd5b50565b60008135905061124c81611226565b92915050565b600080fd5b600080fd5b6000601f19601f8301169050919050565b7f4e487b7100000000000000000000000000000000000000000000000000000000600052604160045260246000fd5b6112a58261125c565b810181811067ffffffffffffffff821117156112c4576112c361126d565b5b80604052505050565b60006112d76111e0565b90506112e3828261129c565b919050565b600067ffffffffffffffff8211156113035761130261126d565b5b61130c8261125c565b9050602081019050919050565b82818337600083830152505050565b600061133b611336846112e8565b6112cd565b90508281526020810184848401111561135757611356611257565b5b611362848285611319565b509392505050565b600082601f83011261137f5761137e611252565b5b813561138f848260208601611328565b91505092915050565b600080604083850312156113af576113ae6111ea565b5b60006113bd8582860161123d565b925050602083013567ffffffffffffffff8111156113de576113dd6111ef565b5b6113ea8582860161136a565b9150509250929050565b600081519050919050565b600082825260208201905092915050565b60005b8381101561142e578082015181840152602081019050611413565b60008484015250505050565b6000611445826113f4565b61144f81856113ff565b935061145f818560208601611410565b6114688161125c565b840191505092915050565b6000602082019050818103600083015261148d818461143a565b905092915050565b6000819050919050565b6114a881611495565b81146114b357600080fd5b50565b6000813590506114c58161149f565b92915050565b6000602082840312156114e1576114e06111ea565b5b60006114ef848285016114b6565b91505092915050565b61150181611214565b82525050565b600060208201905061151c60008301846114f8565b92915050565b60008060408385031215611539576115386111ea565b5b60006115478582860161123d565b9250506020611558858286016114b6565b9150509250929050565b61156b81611495565b82525050565b60006020820190506115866000830184611562565b92915050565b6000806000606084860312156115a5576115a46111ea565b5b60006115b38682870161123d565b93505060206115c48682870161123d565b92505060406115d5868287016114b6565b9150509250925092565b6000602082840312156115f5576115f46111ea565b5b60006116038482850161123d565b91505092915050565b60008115159050919050565b6116218161160c565b811461162c57600080fd5b50565b60008135905061163e81611618565b92915050565b6000806040838503121561165b5761165a6111ea565b5b60006116698582860161123d565b925050602061167a8582860161162f565b9150509250929050565b600067ffffffffffffffff82111561169f5761169e61126d565b5b6116a88261125c565b9050602081019050919050565b60006116c86116c384611684565b6112cd565b9050828152602081018484840111156116e4576116e3611257565b5b6116ef848285611319565b509392505050565b600082601f83011261170c5761170b611252565b5b813561171c8482602086016116b5565b91505092915050565b6000806000806080858703121561173f5761173e6111ea565b5b600061174d8782880161123d565b945050602061175e8782880161123d565b935050604061176f878288016114b6565b925050606085013567ffffffffffffffff8111156117905761178f6111ef565b5b61179c878288016116f7565b91505092959194509250565b600080604083850312156117bf576117be6111ea565b5b60006117cd8582860161123d565b92505060206117de8582860161123d565b9150509250929050565b6117f18161160c565b82525050565b600060208201905061180c60008301846117e8565b92915050565b7f596f7520617265206e6f7420746865206f776e65720000000000000000000000600082015250565b60006118486015836113ff565b915061185382611812565b602082019050919050565b600060208201905081810360008301526118778161183b565b9050919050565b7f4e487b7100000000000000000000000000000000000000000000000000000000600052601160045260246000fd5b60006118b882611495565b91506118c383611495565b92508282019050808211156118db576118da61187e565b5b92915050565b7f4e487b7100000000000000000000000000000000000000000000000000000000600052602260045260246000fd5b6000600282049050600182168061192857607f821691505b60208210810361193b5761193a6118e1565b5b50919050565b60008190508160005260206000209050919050565b60006020601f8301049050919050565b600082821b905092915050565b6000600883026119a37fffffffffffffffffffffffffffffffffffffffffffffffffffffffffffffffff82611966565b6119ad8683611966565b95508019841693508086168417925050509392505050565b6000819050919050565b60006119ea6119e56119e084611495565b6119c5565b611495565b9050919050565b6000819050919050565b611a04836119cf565b611a18611a10826119f1565b848454611973565b825550505050565b600090565b611a2d611a20565b611a388184846119fb565b505050565b5b81811015611a5c57611a51600082611a25565b600181019050611a3e565b5050565b601f821115611aa157611a7281611941565b611a7b84611956565b81016020851015611a8a578190505b611a9e611a9685611956565b830182611a3d565b50505b505050565b600082821c905092915050565b6000611ac460001984600802611aa6565b1980831691505092915050565b6000611add8383611ab3565b9150826002028217905092915050565b611af6826113f4565b67ffffffffffffffff811115611b0f57611b0e61126d565b5b611b198254611910565b611b24828285611a60565b600060209050601f831160018114611b575760008415611b45578287015190505b611b4f8582611ad1565b865550611bb7565b601f198416611b6586611941565b60005b82811015611b8d57848901518255600182019150602085019450602081019050611b68565b86831015611baa5784890151611ba6601f891682611ab3565b8355505b6001600288020188555050505b505050505050565b6000611bca82611495565b91507fffffffffffffffffffffffffffffffffffffffffffffffffffffffffffffffff8203611bfc57611bfb61187e565b5b600182019050919050565b7f496e76616c696420616464726573730000000000000000000000000000000000600082015250565b6000611c3d600f836113ff565b9150611c4882611c07565b602082019050919050565b60006020820190508181036000830152611c6c81611c30565b9050919050565b6000611c7e82611495565b9150611c8983611495565b9250828203905081811115611ca157611ca061187e565b5b92915050565b7f496e76616c696420616464726573733a207a65726f206164647265737320697360008201527f206e6f7420616c6c6f7765640000000000000000000000000000000000000000602082015250565b6000611d03602c836113ff565b9150611d0e82611ca7565b604082019050919050565b60006020820190508181036000830152611d3281611cf6565b9050919050565b7f4e6f7420417574686f7269736564000000000000000000000000000000000000600082015250565b6000611d6f600e836113ff565b9150611d7a82611d39565b602082019050919050565b60006020820190508181036000830152611d9e81611d62565b9050919050565b7f21455243373231496d70656c656d656e74730000000000000000000000000000600082015250565b6000611ddb6012836113ff565b9150611de682611da5565b602082019050919050565b60006020820190508181036000830152611e0a81611dce565b9050919050565b600081519050919050565b600082825260208201905092915050565b6000611e3882611e11565b611e428185611e1c565b9350611e52818560208601611410565b611e5b8161125c565b840191505092915050565b6000608082019050611e7b60008301876114f8565b611e8860208301866114f8565b611e956040830185611562565b8181036060830152611ea78184611e2d565b905095945050505050565b60007fffffffff0000000000000000000000000000000000000000000000000000000082169050919050565b611ee781611eb2565b8114611ef257600080fd5b50565b600081519050611f0481611ede565b92915050565b600060208284031215611f2057611f1f6111ea565b5b6000611f2e84828501611ef5565b91505092915050565b7f4552433732313a207472616e7366657220746f206e6f6e20455243373231526560008201527f63656976657220696d706c656d656e7465720000000000000000000000000000602082015250565b6000611f936032836113ff565b9150611f9e82611f37565b604082019050919050565b60006020820190508181036000830152611fc281611f86565b905091905056fea2646970667358221220fcb5b3cdec9102eff6d210b23a570c512862da73527dce483740fd7a383160fa64736f6c63430008180033",
  "linkReferences": {},
  "deployedLinkReferences": {}
}